:020000040800F2
:10000000001000202903000800000000000000008C
:10001000E1020008E1020008E1020008000000001F
:10002000000000000000000000000000E1020008E5
:10003000E102000800000000E10200080D010008D4
:10004000E1020008E1020008E1020008E102000804
:10005000E1020008E1020008E1020008E1020008F4
:10006000E1020008E1020008E1020008E1020008E4
:10007000E1020008E1020008E1020008E1020008D4
:10008000E1020008E1020008E1020008E1020008C4
:10009000E1020008E1020008E1020008E1020008B4
:1000A000E1020008E1020008E1020008E1020008A4
:1000B000E1020008E1020008E1020008E102000894
:1000C000E1020008E1020008E1020008E102000884
:1000D000E1020008E1020008E1020008E102000874
:1000E000E1020008E1020008E1020008000000004F
:1000F0000000000000000000000000000000000000
:1001000000000000000000005FF808F170470000E8
:1001100008B50C4B98470C4B98470C4B64221B6856
:10012000B3FBF2F3B3F1807F0BD2094A013B53607A
:10013000084BF02183F823100023936007231360FA
:1001400008BDFEE765010008CD01000800000020A1
:1001500010E000E000ED00E008B5014B9847FEE735
:100160001101000873B5134B40F20D20012198478F
:100170004FF000500121104B98470325002301A99F
:100180000E4E0F48ADF804508DF80730B0478DF88B
:1001900006500C4D20241023284601A98DF8073065
:1001A000ADF80440B04728462146074B984702B0B7
:1001B00070BD00BF59060008710600088B050008D5
:1001C00000080140000C01402706000870B54FF4FC
:1001D000404090B0304B9847012001462F4B984744
:1001E0002F48304B9847304B002505932F4B022664
:1001F000069380230A934FF480730B934FF40063AC
:100200000C9320230D934FF400530E93244805A91B
:10021000274B079509950F95089698472048012187
:10022000244B98474FF460230124029322486946E7
:10023000224B009503958DF804408DF805408DF80C
:100240001060984729461C48224605231C4DA847A4
:100250003246194821460523A84717482146194B1D
:1002600098471548184B214698471348174B98470D
:100270001148174B98470028FAD10F48154B98475B
:100280000D48154B98470028FAD10B480121134B14
:10029000984710B070BD00BF2D0600084106000849
:1002A00008000240890600084C2401400800002094
:1002B00079070008B507000800240140650400081C
:1002C00007050008BF040008AD040008D1040008B9
:1002D000DB040008E3040008ED040008F50400084E
:1002E000FEE700000B4A0C4B9A4201D0043A01E0B1
:1002F0000A4B07E00A498B42FAD252F8041F43F82E
:10030000041BF7E7074A934203D2002243F8042B69
:10031000F8E77047E0070008000000200800002010
:100320000800002010000020684620F007018D46DC
:1003300001B5002382B00193019A094B9A4202D879
:10034000019B0133F7E7074B9847074B9847074B4B
:100350004FF0006006499847064B9847FEE700BFFC
:100360001FA10700E502000879030008C90700087B
:100370000000000059010008364B82B01A6842F0B4
:1003800001021A605968344A0A405A601A6822F019
:10039000847222F480321A601A6822F480221A6071
:1003A0005A6822F4FE025A604FF41F029A6000223B
:1003B000009201921A6842F480321A601A6802F4BC
:1003C00000320192009A01320092019A1AB9009A01
:1003D000B2F5A06FF2D11A6812F4003218BF0122F0
:1003E0000192019A012A05D01C4B4FF000629A60DD
:1003F00002B070471A4A116841F01001116011688B
:1004000021F003011160116811605A685A605A683E
:100410005A605A685A605A6822F47C125A605A68C4
:1004200042F498125A601A6842F080721A60196891
:10043000084A8901FBD5516821F0030151605168D8
:1004400041F0020151605A6802F00C02082AFAD108
:10045000CAE700BF001002400000FFF800ED00E016
:1004600000200240436810B523F470220B6822F488
:10047000807213430A7943EA022343608A68CB6897
:1004800084681A43084B234013434A7943EA4203E2
:100490008360C36A23F470020B7C013BDBB242EA47
:1004A0000353C36210BD00BFFDF7F1FF836811B1B4
:1004B00043F0010301E023F0010383607047836888
:1004C00011B143F4807301E023F4807383607047BB
:1004D000836843F00803836070478068C0F3C000FE
:1004E0007047836843F00403836070478068C0F3FB
:1004F00080007047836811B143F4A00301E023F446
:10050000A00383607047092970B50CD9A1F10A04D2
:10051000C66804EB44040725A54026EA0505A34068
:100520002B43C36009E0056901EB41060724B44091
:1005300025EA0404B34023430361062A0BD8013A99
:10054000446B02EB82021F23934024EA0303914091
:100550001943416370BD0C2A0BD8073A046B02EBB8
:1005600082021F23934024EA03039140194301634D
:1005700070BD0D3AC46A02EB82021F23934024EA45
:10058000030391401943C16270BDCA78F0B5D40627
:1005900048BF8C780D8802F00F0348BF234315F045
:1005A000FF0F1DD0016800240126A64006EA0507BA
:1005B000B74211D14FEA840E0F2606FA0EF621EA51
:1005C0000601282A03FA0EF641EA060101D1476125
:1005D00002E0482A08BF07610134082CE4D1016019
:1005E000FF2D1FD94168002404F108070126BE40F1
:1005F00006EA0507B74211D14FEA840E0F2606FA24
:100600000EF621EA0601282A03FA0EF641EA06014F
:1006100001D1476102E0482A08BF07610134082C74
:10062000E2D14160F0BD416170470000034A536868
:1006300023F4404318435060704700BF001002404D
:10064000044B5A6909B1104301E022EA00005861E5
:10065000704700BF00100240044B9A6909B1104373
:1006600001E022EA00009861704700BF00100240DC
:10067000044BDA6909B1104301E022EA0000D861B5
:10068000704700BF00100240036823F001030360BD
:100690000023036043608360C360294B984201D10B
:1006A000284A27E0284B984201D1264A2AE0274BC6
:1006B000984201D1234A2DE0254B984201D1214A8D
:1006C00030E0244B984201D11E4A33E0224B98423D
:1006D00004D11C4A536843F470032EE01F4B984228
:1006E00004D1184A536843F0706326E01C4B9842CB
:1006F00004D11C4A536843F00F031EE01A4B984282
:1007000004D1184A536843F0F00316E0174B98429F
:1007100004D1144A536843F470630EE0144B9842BA
:1007200004D1104A536843F4704306E0114B9842D9
:1007300004D10C4A536843F470235360704700BFE0
:1007400008000240000002401C000240300002404D
:1007500044000240580002406C0002408000024009
:1007600008040240000402401C040240300402401D
:1007700044040240580402408A6810B50C6A0368B9
:1007800014430A6923F4FF4314434A6923F07003B6
:1007900014438A691443CA6914434A6A14438A6A2F
:1007A000224313430360CB6843600B6883604B684C
:1007B000C36010BD036811B143F0010301E023F0F1
:1007C000010303607047000021F0604121F07F01C8
:0C07D000014B08439860704700ED00E00A
:0807E00000366E01000000006C
:0400000508000329C3
:00000001FF
